:020000040800F2
:100000000010002089070008C9860208C9070008F7
:10001000ED070008C8070008DB0700088307000891
:1000200083070008830700088307000861F80008B9
:1000300083070008830700088307000845060108B6
:10004000830700088307000841050108B10501087E
:10005000830700088307000831FC030839FC030804
:1000600041FC030849FC030851FC030849FB000854
:1000700079FB0008ADFB0008E1FB000815FC000857
:1000800045FC000879FC0008DDF8000869FA000862
:1000900085FA0008A1FA0008BDFA000859FC030817
:1000A00083070008AD07010883070008C907010896
:1000B00021070108CD070108E9070108F5EE03084B
:1000C0008307000879FE000891FF000883070008F5
:1000D00083070008830700088307000883070008D8
:1000E0007DFC0308F1050108830700088307000869
:1000F00021080108830700083D080108ADFC00083D
:100100008307000883070008050801088307000823
:100110008307000883070008C90601088307000851
:10012000E1FC000811FD000845FD000879FD00080C
:10013000ADFD00088307000883070008D9FA00080E
:10014000F5FA000811FB00082DFB0008A1000108CA
:10015000DDFD000811FE000845FE00084108010809
:100160008307000883070008830700088307000847
:100170008307000883070008830700088307000837
:100180008307000883070008830700088307000827
:100190008307000883070008830700088307000817
:1001A0008307000883070008830700088307000807
:1001B00083070008830700088307000883070008F7
:1001C00083070008830700088307000883070008E7
:1001D00083070008830700088307000883070008D7
:0801E000F98C0008D5000708A6
:1002000030B490F800F020F007016FF0000C10F00F
:10021000070491F820F040F048804FF000046FF0A0
:100220000700D1E9002391F840F000F1080082FABC
:100230004CF2A4FA8CF283FA4CF3A2FA8CF34BBB87
:10024000D1E9022382FA4CF200F10800A4FA8CF200
:1002500083FA4CF3A2FA8CF3E3B9D1E9042382FACE
:100260004CF200F10800A4FA8CF283FA4CF3A2FAE3
:100270008CF37BB9D1E9062301F1200182FA4CF21B
:1002800000F10800A4FA8CF283FA4CF3A2FA8CF382
:10029000002BC6D0002A04BF04301A4612BAB2FAA4
:1002A00082F200EBD20030BC7047D1E9002304F0A9
:1002B0000305C4F100004FEAC50514F0040F91F8DE
:1002C00040F00CFA05F562EA05021CBF63EA05037B
:1002D00062464FF00004AAE70000000000000000A2
:1002E00002780B78012A28BF9A4240F0D8806DE945
:1002F000044540EA0104CDE902676FF0000C4FEAC3
:1003000044721AB380EA010414F0070F6BD100F0B5
:10031000070420F0070004F0030521F007014FEA6D
:10032000C505F0E8042314F0040FF1E804670CFAA3
:1003300005F462EA040266EA04060BD063EA0403E9
:10034000624667EA0407664604E000BFF0E804235B
:10035000F1E8046782FA4CF582EA0604A4FA8CF408
:100360006CBB83FA4CF583EA0705A5FA8CF595B9C1
:1003700050E9022351E9026782FA4CF582EA060449
:10038000A4FA8CF483FA4CF583EA0705A5FA8CF5F8
:100390002543DBD09CB92DBAB5FA85F424F00704C7
:1003A00027FA04F1DDE9026723FA04F303F0FF0002
:1003B00001F0FF01FDE80445A0EB0100704724BAFD
:1003C000B4FA84F424F0070426FA04F1DDE90267A4
:1003D00022FA04F202F0FF0001F0FF01FDE80445FB
:1003E000A0EB0100704714F0030F3CD110F00304A0
:1003F00028D150F8082B51F8083B82FA4CF582EAD4
:100400000305A5FA8CF55DB950F8042C51F8043CAD
:1004100082FA4CF582EA0305A5FA8CF5002DE8D0A6
:100420002DBAB5FA85F424F0070423FA04F122FA70
:1004300004F202F0FF0001F0FF01FDE80445A0EB2B
:10044000010070474FEAC40420F0030050F8082B65
:1004500021F0030151F8083B0CFA04F462EA0402AB
:1004600063EA0403C9E710F003041DD0A1EB040103
:1004700020F00300E40750F8042B06D012D28B784A
:100480005FFAA2F4E41A06D12BB1CB785FFAB2F48A
:10049000E41A00D133B920465DF8104B7047A2EB47
:1004A0000300704701F1040150F8042BCC0721F040
:1004B000030151F8043B48D824D222F07F4482FA49
:1004C0004CF594EA1325A5FA8CF50AD165B951F8D3
:1004D000043B84EA0204B4EB036F0ED150F8042B02
:1004E000EBE74FEA132355E035F07F454DD108780F
:1004F000FDE80445C0F1000070474FEA126203F0C6
:10050000FF0347E002EA1C4482FA4CF594EA1345E3
:10051000A5FA8CF50AD165B951F8043B84EA0204C6
:10052000B4EB034F0CD150F8042BEBE74FEA134325
:1005300030E015EA1C4528D10B884FEA124229E029
:100540004FEA124203EA1C4324E002F0FF0482FA5D
:100550004CF594EA1365A5FA8CF50AD165B951F802
:10056000043B84EA0204B4EB032F09D150F8042BB6
:10057000EBE74FEA13630DE015F0FF0F05D10B68B1
:100580004FEA122223F07F4304E04FF00000FDE821
:100590000445704712BA1BBA82FA4CF482EA03048B
:1005A000A4FA8CF5B5FA85F402FA04F203FA04F31E
:1005B0004FEA1260FDE80445A0EB1360704700BFEE
:1005C00001F0FF01102A2BDB10F0070F08D010F804
:1005D000013B013A8B422DD010F0070F42B3F6D108
:1005E000F0B441EA012141EA014122F007047FF021
:1005F00000070023F0E80256083C85EA010586EA78
:10060000010685FA47F5A3FA87F586FA47F6A5FAB3
:1006100087F68EB9EED1F0BC01F0FF0102F00702BF
:1006200032B110F8013B013A83EA010313B1F8D16A
:100630000020704701387047002D06BF354603384B
:10064000073815F0010F07D1013015F4807F02BF84
:10065000013015F4C03F0130F0BC0138704700BFD5
:1006600072B6394880F30888384880F309883848DA
:100670004EF60851CEF20001086040F20000CCF2C4
:1006800000004EF63471CEF200010860BFF34F8FC8
:10069000BFF36F8F40F20000C0F2F0004EF68851B9
:1006A000CEF200010860BFF34F8FBFF36F8F4FF0A2
:1006B0000000E1EE100A4EF63C71CEF20001086037
:1006C000062080F31488BFF36F8F0BF0FBFC27F03C
:1006D000DBFE4FF055301F491B4A91423CBF41F8A9
:1006E000040BFAE71C49194A91423CBF41F8040B3C
:1006F000FAE71A491A4A1B4B9A423EBF51F8040BBB
:1007000042F8040BF8E700201749184A91423CBF11
:1007100041F8040BFAE70BF0D9FC3EF07BFF144CD8
:10072000144DAC4203DA54F8041B8847F9E766F02D
:1007300021FE114C114DAC4203DA54F8041B8847DA
:10074000F9E70BF0C1BC00000010002000160020EB
:10075000000000080000002000100020347E08087F
:1007600000160020304400203044002098ED012085
:10077000E0010008E4010008E4010008E8010008C5
:100780006EE700F000F8FEE70A480B4902680060D7
:100790008A4201D0FFF764FF08484FF480410160AE
:1007A00007484FF0010101600648D0F800D04068CA
:1007B00000470000F0FF0120EFBEADDE44380240EC
:1007C000003801400000FF1F1EF0040F0CBFEFF3C4
:1007D0000880EFF3098027F07BBF1EF0040F0CBFE9
:1007E000EFF30880EFF3098027F0B4BF1EF0040F89
:1007F0000CBFEFF30880EFF3098027F0F1BF00BFD3
:1008000008B52DED028BF0EE408AB0EE608A00F064
:1008100077F8F4EE488AF1EE10FA06D6DFED098A91
:10082000B4EE688AF1EE10FA02D0BDEC028B08BD7E
:1008300003F0E4F888EEA80ABDEC028B21230360E4
:1008400008BD00BF0000000008B52DED028BB0EE22
:10085000408A01F025FAB4EE488AF1EE10FA0FD67C
:10086000B5EEC08AF1EE10FA0ADCB5EE408AF1EE80
:1008700010FA08D103F0C2F822239FED090A0360A1
:10088000BDEC028B08BD03F0B9F8BDEC028B03464A
:1008900021221A600348BDE8084000F0D9BA00BF21
:1008A000000080FFE8DC070808B52DED028BB0EEF4
:1008B000408A00F007F9B4EE488AF1EE10FAF0EE43
:1008C000408A0AD6B0EE480A01F0E2F9F7EE007A63
:1008D000B4EEE70AF1EE10FA04DCB0EE680ABDEC03
:1008E000028B08BD03F08AF8BDEC028B034621227F
:1008F0001A600248BDE8084000F0AABAE8DC070820
:1009000030B583B0CDED010A019A22F0004E0EF110
:10091000FF33B3F1FF4F42D210EE104A24F00040F3
:10092000B0F1FF4F3BD270453FDB04F000413ED0B9
:1009300014F0FF4F02F0FF4558D14FEA002C6FF042
:100940007D034FEA4C0CBCF1000F03F1FF33F8DCE0
:10095000002D5CD14FEA0E226FF07D0C52000CF19D
:10096000FF3CFBD513F17E0F63DA6FF07D02D21AE4
:1009700090406FF07D02A2EB0C020EFA02F2B3EB94
:100980000C0305D11AE012D04FEA4E00013B15D0FE
:10099000A0EB020EBEF1000FF5DA4000F6E7DDED48
:1009A000017A60EE277A87EEA70A03B030BD234BA9
:1009B00003EB517393ED000A03B030BD831A48BFB7
:1009C00003461BB9F3E75B000CF1FF3CB3F5000FE6
:1009D000F9DB1CF17E0F23DBA3F500030CF17F0C88
:1009E0000B4343EACC5300EE103ADEE7C3157F3BDE
:1009F000002DAFD04FEAEE5EC4F31604AEF17F0CCB
:100A000044F40000C2F3160242F40002B7E76FF0AC
:100A10007D044FEAEE5EE41AAEF17F0CA040F1E7F0
:100A20006FF07D02A2EB0C0213410B4300EE103A73
:100A3000BBE7C4F3160444F400009AE70003070878
:100A400008B5FFF701FFDFED027A80EE270A08BD47
:100A50001872313F10EE103A184923F000428A42D2
:100A60001AD9B2F1FF4F02D330EE400A704700B5F9
:100A700083B0684600F0FCFE00F003000128DDEDC5
:100A8000010A9DED000A10D0022809D090B900F0AB
:100A9000C9FA03B05DF804FBDFED090A00F0C2BA41
:100AA00000F0C0FAB1EE400AF3E700F099FEB1EEB3
:100AB000400AEEE7012000F093FEEAE7D80F493F35
:100AC0000000000008B510EE102A22F00043B3F138
:100AD0007E5F2DED028B12D00AD8B3F17C5F19D264
:100AE000B3F10C5F6AD8BDEC028B9FED760A08BDAE
:100AF00070EE407A87EEA70ABDEC028B08BDBDEC14
:100B0000028B9FED710ADFED717A002AC8BFB0EE4B
:100B1000670A08BD002AC0F28E80F7EE008A38EE20
:100B2000C00AF6EE007A20EE278AB0EE480A01F0FD
:100B3000CFFCDFED677A9FED677ADFED676ADFED67
:100B4000675A9FED676AA8EE277ADFED667AE7EECF
:100B5000086AE8EE067AE6EE885A9FED636A9FED32
:100B6000637ADFED636AA5EE886AA7EE887ADFED27
:100B7000617AE6EE087A10EE103AE7EE086A6FF353
:100B80000B03B0EE677A07EE903AF0EE485AE7EEC4
:100B9000E75AE6EE888A30EE276A27EE087AC5EE35
:100BA000866A87EE286ABDEC028BB0EE667AA0EE0C
:100BB000067A37EE870A30EE000A08BD20EE007A8A
:100BC000DFED437A9FED436ADFED436A9FED445AC0
:100BD000DFED425AA7EE276ABDEC028BE6EE076A0C
:100BE000DFED407A9FED416AE7EE057AE6EE875A3F
:100BF000A7EE876A9FED3C5ADFED3D7ADFED3D6A57
:100C0000A5EE875AE6EE077AE5EE076AF7EE005A98
:100C1000E7EE875A26EE877A9FED376ADFED377A5F
:100C2000C7EE256AB0EE467AA0EE667A30EE470A45
:100C300037EEC00A08BDB7EE007A30EE070AF6EECE
:100C4000007A60EE277ADFED226A9FED226ADFEDFF
:100C5000224ADFED235A9FED215A9FED268AA7EE07
:100C6000A66ADFED206AE6EE274AE7EEA56ADFED29
:100C70001F5A9FED1D6AA4EEA75AE6EEA75ADFEDB4
:100C80001C6AA5EE276AE5EEA76AA6EE278AA6EEFD
:100C9000A77A28EE278AF0EE478AB0EE670A01F0BD
:100CA00017FC88EE286A9FED167ADFED167AA0EE23
:100CB000067AF0EE006A37EE007AE7EE667AB0EE7A
:100CC000670A19E7DB0FC93FDB0F4940000000004E
:100CD00008EF1138047F4F3A461124BDA80A4E3E52
:100CE0002EC69D3D613330BF90B0A6BE2D5701404A
:100CF00039D119C0ABAA2A3E6821A233DA0FC93F05
:100D00006821A2B3DA0F494008B52DED028BB0EE91
:100D1000408A01F0DDFBB4EE488AF1EE10FA06D607
:100D2000DFED098AB4EEE88AF1EE10FA02D4BDECE8
:100D3000028B08BD02F062FE88EEA80ABDEC028BB1
:100D40002123036008BD00BF0000000000F0D2BBFB
:100D500010EE103A114A23F00043934218D9B3F130
:100D6000FF4F02D330EE400A704700B583B06846AB
:100D700000F07EFD400000F00200DDED010A9DED77
:100D8000000AC0F1010000F0A3FE03B05DF804FB0F
:100D9000DFED030A012000F09BBE00BFDA0F493FE0
:100DA0000000000010EE103A10B423F00042134C83
:100DB00002F1FF3CA4451CD213F0FF4F19460DD0A1
:100DC0000024D2157E3A21F0FF41224441F07C53A9
:100DD00000EE103A5DF8044B02607047DFED087AD0
:100DE00060EE277A6FF0180417EE901A21F0004297
:100DF000E7E700225DF8044B02607047FFFF7F7F4A
:100E00000000004C10EE103AC3F3C7527F3A162A86
:100E1000194615DC002A0CDB0C481041184205D09D
:100E20004FF4800313410B4423EA000300EE103A11
:100E30007047013203F00043F8D143F07E53F5E7E9
:100E4000802AF3D130EE000A704700BFFFFF7F0019
:100E50009FED010A704700BF0000C07F08B52DED6F
:100E6000048BB0EE608AB0EE409A01F035FBB4EE30
:100E7000488AF1EE10FAF0EE408A0BD6B5EE409AB1
:100E8000F1EE10FA17D1B5EE408AF1EE10FA06D164
:100E9000F7EE008AB0EE680ABDEC048B08BDB0EE38
:100EA000480A00F0EDFA0028F4D0B5EEC08AF1EE61
:100EB00010FAEFD525E000F0E3FA88B1F5EE408AAC
:100EC000F1EE10FAE6D1B0EE490A00F0D9FA0028A6
:100ED000E0D0B0EE480A00F0D3FA0028DAD010E0F3
:100EE000B0EE490A00F0CCFA0028E7D0B0EE480A8C
:100EF00000F0C6FA0028E1D0F4EE688AF1EE10FAAC
:100F000004D602F07BFD22230360C3E702F076FDE6
:100F100021230360BEE700BF10EE102AC2F3C753BF
:100F20007F3B162B22F0004132DC002B104618DBF1
:100F30001A4919410A422AD0DFED197A70EE277A50
:100F4000F5EEC07AF1EE10FA21DD002A04DD4FF44F
:100F5000000242FA03F3184420EA010300EE103ABB
:100F60007047DFED0F7A70EE277AF5EEC07AF1EE7A
:100F700010FA0CDD002A08DBDFED0A7A0029B7EE53
:100F8000000A08BFB0EE670A70479FED070A704776
:100F9000B1F1FF4FFBD330EE000A7047FFFF7F0037
:100FA000CAF24971000000000000008008B52DED74
:100FB000028BB0EE408A01F043FEF0EE408AB0EEC4
:100FC000480A00F05DFA68B1DFED127AB4EEE78A04
:100FD000F1EE10FA0BDCDFED107AB4EEE78AF1EEF9
:100FE00010FA0FD4B0EE680ABDEC028B08BDDFED3D
:100FF0000B8A02F003FDB0EE680ABDEC028B2223DF
:10100000036008BD02F0FAFC2223DFED058A0360CD
:10101000E8E700BF1772B142B5F1CFC20000807F90
:101020000000000010EE103A23F00043B3F1485FD7
:101030002CD2FDEEC07A17EE903A002B60D060EE15
:10104000007A9FED317A9FED315ADFED315A9FEDF5
:10105000316ADFED316AA7EE875A9FED307AE7EE0D
:10106000855AA7EEA56AA7EE867AE7EE876A67EE4D
:10107000A66A60EEC00AB6EE007AE7EEA60AB7EE00
:10108000000AD7EE870A30EE600A704760EE007AF9
:101090009FED1D7A9FED1D5ADFED1D5A9FED1D6AD4
:1010A000DFED1D6A1E4AA7EE875A93429FED1B7A19
:1010B000E5EE275AA5EEA76AA6EE277AE7EE276A9D
:1010C00066EEA76AD5D9174A934214D803F17F4335
:1010D00007EE103AB7EE006A36EE476A60EEC00AD5
:1010E000F6EE005A97EEA57AE7EEA60A37EE607A9A
:1010F00036EE470A7047B6EE076AB5EE027AEDE7BC
:10110000B7EE000A704700BF4ED747ADF6740F31F7
:101110007CF293B4010DD037ABAA2A3D610BB6BA6D
:101120009999993E0000483F10EE102AC2F3C75328
:101130007F3B162B22F0004129DC002B104618DBE8
:101140001A4919410A4221D0DFED197A70EE277A47
:10115000F5EEC07AF1EE10FA18DD002A04DA4FF449
:10116000000242FA03F3184420EA010300EE103AA9
:101170007047DFED0F7A70EE277AF5EEC07AF1EE68
:1011800010FA03DD002A08DB9FED0A0A7047B1F16F
:10119000FF4FFBD330EE000A7047DFED077A0029DE
:1011A000BFEE000A08BFB0EE670A7047FFFF7F007E
:1011B000CAF24971000000000000008010EE103AF1
:1011C000194923F000428A421BD9B2F1FF4F02D3E2
:1011D00030EE400A704700B583B0684600F048FB27
:1011E00000F003000128DDED010A9DED000A13D097
:1011F00002280BD098B9012000F0F2FA03B05DF894
:1012000004FBDFED0A0A002000F0EABA012000F03A
:10121000E7FAB1EE400AF1E7FFF704FFEEE7FFF768
:1012200001FFB1EE400AE9E7D80F493F0000000096
:1012300008B52DED028BB0EE408A00F025F8B4EE33
:10124000488AF1EE10FAF0EE408A0AD6B0EE480A6B
:1012500000F01EFDF7EE007AB4EEE70AF1EE10FAA8
:1012600004DCB0EE680ABDEC028B08BD02F0C6FBE0
:10127000BDEC028B034621221A600248BDE80840FB
:10128000FFF7E6BDE8DC070838B510EE105A25F088
:101290000044B4F17E5F2DED048BF0EE407A7FD0F8
:1012A00077D8B4F17C5F0ED2B4F1485F80F09280C1
:1012B0009FED637A30EE077AF7EE006AB4EEE67AD5
:1012C000F1EE10FA62DCB0EE670A00F0E1FCF7EE36
:1012D000007A37EEC08AB6EE007A28EE078ADFED94
:1012E000596A9FED597A9FED596A9FED595ADFED82
:1012F000595ADFED598AE8EE076A9FED587AA8EE51
:10130000067A9FED576AA6EE885AA7EE086A9FED07
:10131000557ADFED556AE5EE085AA6EE087AE5EE55
:10132000886AE7EE087AE6EE888AB0EE480AB0EE00
:10133000679A01F0CDF84D4B9C4268EE888A3AD806
:1013400010EE103A6FF30B0306EE903AA6EEE68A23
:1013500070EE267A88EE895AC8EE274A9FED447AC5
:10136000DFED447AB0EE006AA4EEC67A30EE000AF1
:10137000F0EE675A90EE057AE6EEC65A37EE657AD9
:1013800037EEC70A002D01DCB1EE400ABDEC048B3C
:1013900038BDBDEC048B70EE407A87EEA70A38BDED
:1013A000BDEC048B9FED320A9FED337A27EE800A65
:1013B000A7EE870A38BD88EE896A9FED307ADFEDA7
:1013C0002E7AA0EE060AF0EE006AA0EE267A37EE3C
:1013D000C70AD7E720EE007ADFED1B6A9FED196A96
:1013E000DFED1B5A9FED195ADFED1A4AA7EE266A68
:1013F000BDEC048BE6EE075ADFED186A9FED186A24
:10140000E7EE056AE5EE874AA6EE876A9FED165A73
:10141000DFED145ADFED106AA4EE875AE6EE075AA4
:10142000E5EE076AB7EE006AA5EE876A26EE877AD0
:10143000C7EE066AE0EE267AB0EE670A38BD00BF56
:10144000CAF24971047F4F3A08EF11382EC69D3D0C
:10145000461124BDA80A4E3EABAA2A3E613330BFD6
:101460002D57014039D119C090B0A6BE9999793F46
:101470002EBD3BB3DB0F493FDB0FC93F2EBD3B33D6
:1014800010EE103A23F00040B0F1FF4FACBF002047
:101490000120704708B52DED028BB0EE408A01F0B7
:1014A00003FDB4EE488AF1EE10FA0FD6B5EEC08A0D
:1014B000F1EE10FA0AD8B5EE408AF1EE10FA08D132
:1014C00002F09CFA22239FED090A0360BDEC028B17
:1014D00008BD02F093FABDEC028B034621221A608C
:1014E0000348BDE80840FFF7B3BC00BF000080FF21
:1014F000E8DC070810B582B0CDED010A019B23F0AE
:101500000042B2F1FF4FF0EE407A30D810EE100AF0
:1015100020F00041B1F1FF4F29D8B3F17E5F42D0F6
:101520009C1704F0020444EAD07431B37AB3B2F1E8
:10153000FF4F40D0B1F1FF4F29D0891AB1F1F45FCC
:101540004FEAE15234DA002B42DA3C3240DA9FEDC6
:10155000340A012C4ED0022C43D064B19FED317A75
:10156000DFED317A30EE070A30EE670A03E09DEDD9
:10157000017A37EE270A02B010BD022C10D09FED81
:101580002B7A032C08BFB0EE470A02B010BD9FEDC6
:10159000280ADFED287A0028A8BFB0EE670AEAE73C
:1015A0009FED210AE7E702B0BDE8104000F048B81F
:1015B0009FED200ACDE7B1F1FF4F04F1FF3420D0B9
:1015C000022C26D81C4B03EB840393ED030AD2E7CD
:1015D0009DED017A87EE870A00F05AFB00F030F8A3
:1015E000B7E79FED107ADFED107A30EE070A37EE9D
:1015F000C00AC0E710EE103A03F1004300EE103AC3
:10160000B9E7022C08D80C4B03EB840393ED000AD6
:10161000B1E79FED030AAEE79FED080AABE700BF15
:10162000000000002EBDBB33DB0F4940DB0F49C07B
:10163000DB0FC9BFDB0FC93F08030708DB0F493FBA
:1016400038B510EE105A25F00044B4F1A14FF0EE79
:10165000407A0DD3B4F1FF4F58D8DFED4F7A9FEDAC
:101660004F7A002DCCBFB0EE470AB0EE670A38BD06
:101670004B4B9C4259D8B4F1445F4AD34FF0FF32F0
:1016800027EEA76A9FED475A9FED477ADFED475A4D
:10169000DFED474A66EE066A531CA6EE857AE6EE53
:1016A000A54A9FED445ADFED445AA7EE265AE4EED0
:1016B000A65A9FED427ADFED424AA5EE267AE5EE84
:1016C000A64A9FED405ADFED405AA7EE265A9FEDFD
:1016D0003F7AA4EEA67AE5EE265A27EE267AA5EE04
:1016E000867A27EE877A35D0394B03EB820393ED68
:1016F000046AD3ED006A37EE467A002D37EE677A3A
:1017000036EEC70AB3DAB1EE400A38BD30EE000A51
:1017100038BD9FED307A30EE077AF7EE006AB4EE0E
:10172000E67AF1EE10FAA9DD38BD00F0B1FA2A4BE5
:101730009C4212D8A3F5D0039C4223D8F0EE007A45
:10174000BFEE007AA0EE277A002230EE270AC7EE1D
:10175000007A95E737EEC70A38BD204B9C420BD87C
:10176000F7EE087AB7EE007AA0EE277A022230EE82
:10177000670AC0EE077A83E7BFEE007AC7EE007A09
:1017800003227DE7F7EE007A30EE677A30EE270A23
:101790000122C7EE007A73E7DB0FC9BFDB0FC93F39
:1017A000FFFFDF3ED769853C59DA4B3D21A215BDCD
:1017B0006BF16EBD356B883D95879DBD6E2EBA3D34
:1017C000388EE3BD2549123EABAAAA3ECDCC4CBE15
:1017D00020030708CAF24971FFFF973FFFFF1B4034
:1017E00010EE103A23F00043B3F1485F04D2FDEE4F
:1017F000C07A17EE903A5BB360EE007A9FED157AEF
:10180000DFED155A9FED156ADFED156AE7EE875A91
:101810009FED147AA5EEA76A20EE275AE6EE276A16
:10182000A6EEA77A30B9DFED106AE7EE876AA6EE7A
:10183000850A704727EE457AF6EE006AA0EEA67A92
:10184000DFED0A6AD7EE270AE5EE260A30EE600AD7
:10185000704700BFD3C92E2F342FD7B21BEF3836B5
:10186000010D50B98988083CABAA2ABEABAA2A3E12
:1018700070B510EE103A884A23F00044944286B0C6
:10188000054671D9854A94421E4624D823F0004269
:10189000002BDFED837A834922F00F02B0EE407A0D
:1018A00040F3E0808A4270EE677A09BF9FED7E7A4E
:1018B000DFED7E6ADFED7E6A77EEC77A37EEE67A95
:1018C00077EEC77A80ED007A77EEE67AC0ED017A9E
:1018D000012006B070BD774A944252D9B4F1FF4F4F
:1018E00048D2E215863AA4EBC25307EE903ABDEE19
:1018F000E77ADFED716AB8EEC77A77EEC77A8DEDD9
:10190000037A67EEA67ABDEEE77AB8EEC77A77EE8D
:10191000C77A8DED047A67EEA67AF5EE407AF1EE9D
:1019200010FACDED057A40F09880B5EE407AF1EEF0
:1019300010FA0CBF0123022360490191022100919A
:1019400003A8294600F0A6FA002EC2DA95ED007A27
:10195000D5ED017AB1EE477AF1EE677A85ED007A3E
:10196000C5ED017A4042B4E7002285ED000A4260ED
:101970000020AEE770EE407AC0ED017AC0ED007A4B
:10198000F6E700F085F99FED4E7A9FED456AF6EE99
:10199000007AE0EE077A9FED457AFDEEE77A17EEE2
:1019A000900AF8EEE76A1F28A6EEC60A66EE877A66
:1019B000B1EE666A20DC434A411E26F0004352F82D
:1019C000212023F0FF03934216D030EE677A30EEE9
:1019D000470A002E30EE670A85ED007A85ED010A90
:1019E000BFF677AFB1EE477AB1EE400A85ED007AE7
:1019F00085ED010A40426CE730EE677AE21517EE9A
:101A0000103AC3F3C753C3EBD453082BDFDD9FED6C
:101A1000267A9FED275AF0EE405AE6EE075A70EE0E
:101A2000657AE6EE077AD6EE857A35EEE77A17EE36
:101A3000103AC3F3C753D21A192A10DD9FED227A48
:101A40009FED225AB0EE650AA6EE070A75EEC07A3F
:101A5000E6EE077AD6EE857AB7E703236CE7B0EEB9
:101A6000650AB4E78A4270EE277A09BF9FED0E7AC5
:101A7000DFED0E6ADFED0E6A77EE877A37EEA67A33
:101A800077EEC77A80ED007A77EEA67AC0ED017A1C
:101A90004FF0FF301DE700BFD80F493FE3CB1640A2
:101AA000800FC93FD00FC93F004435374344353715
:101AB00008A3852E800F494300008043C003070818
:101AC00084F9223F4003070800A3852E32318D247C
:101AD00008B510EE103A23F00042B2F1465FF0EE86
:101AE000407A0FD2BDEEC07A17EE101AF9B9431C36
:101AF000134300F09F80012803D0BFEE007A87EEE9
:101B0000270A08BD50498A4211D39FED507ADFED74
:101B1000506A002BBCBFF1EE600AF1EE407A77EE1E
:101B2000677A36EEE07ADFED4B0A77EE277A67EEDA
:101B3000A76ADFED494ADFED495A9FED495A9FED0B
:101B4000496A414926EEA67A8A42E7EE245AA7EE70
:101B5000056ADFED454A9FED455AE5EE874AA6EE58
:101B6000075ADFED435A9FED436AE4EE875AA5EE2C
:101B7000076ADFED414A9FED415AE5EE874AA6EE3E
:101B8000075A9FED3F6ADFED3F5AA4EE876AE5EE04
:101B9000075AB0EE467AA5EEA67A27EEA65AB0EE20
:101BA000606AA7EE056ADFED384AE6EE260AE5EE42
:101BB000240A37EEA00A1FD20128A2D0BFEE007A75
:101BC000C7EE006A314B10EE102A1A4006EE102ABA
:101BD00016EE902A76EE677A134000EE103AB7EED2
:101BE000007A70EEE70AF0EE477AE6EE007AE0EE71
:101BF000807AA7EEA60A08BD07EE100AB8EEC77AEB
:101C000060EE006A30EE070A9B1786EE806A03F0EA
:101C10000203C3F10103F0EE005A36EE606A06EEED
:101C2000903A77EEC67AF8EEE66AA7EEE57A26EE07
:101C3000870A08BD00F02CF8B7EE007AF0EE407A83
:101C400087EE270A08BD00BF40A12C3FDA0F493FAD
:101C500068212233000000005FAE9BB745F4A33833
:101C60008453D9377AC09538C8261A3AB93781399A
:101C700016696B3B48DEBE3AA427B33C1F37113CC4
:101C80008988083ED10D5D3DABAAAA3E00F0FFFF5A
:101C900010EE103A23F0004300EE103A704700BFF8
:101CA00010EE102A32F000432FD0002A134633DB07
:101CB000B2F1FF4F40DAB2F5000F34DB4FF0000C09
:101CC0006448C3F31601084400F4000282F07E5217
:101CD0000A43DB1500EE102A7F3B5F4A634401F1A3
:101CE0000F0CF7EE007A0CEA020230EE670A03EB03
:101CF000D05322BBB5EE400AF1EE10FA62D1002BB0
:101D000040F090809FED550A70479FED557ADFEDCA
:101D1000537A87EE270A704770EE407A9FED4F7A2C
:101D200087EE870A7047DFED4F7A60EE277A6FF013
:101D3000180C17EE903AC3E730EE000A7047F0EE49
:101D4000007A70EE277A07EE103A80EE274A46486E
:101D5000C1F55712084402F522720243002A9FED92
:101D6000433ADFED434ADFED435ADFED433A9FED5F
:101D7000435ADFED437ADFED436A24EE046AF8EE5E
:101D8000C72A26EE067AE7EE034AA7EE235AE4EEC8
:101D9000875AE5EE076AE5EE877A67EE867AE6EE21
:101DA000877A2ADDB6EE007A20EE077A27EE007AEF
:101DB00077EE877A67EE847A3BBB37EE677A30EE50
:101DC000470A70479FED307AF6EE007AE0EE477AE8
:101DD00020EE007A27EE277A002BF0D007EE903A1B
:101DE0009FED2A6ADFED2A6AF8EEE77AA7EEC67A57
:101DF00037EE400A97EEA60A704770EE677A67EEF4
:101E0000847AE3B930EE670A70479FED206ADFED10
:101E1000206AE2EE867A37EE677A37EE400A92EE73
:101E2000A60A704707EE903A9FED180A9FED187AC0
:101E3000F8EEE77A27EE800AA7EE870A7047DFED13
:101E4000136A9FED137AE2EEE67A37EEC00A92EE5D
:101E5000870A704720FB4A00F0FF7F000000000067
:101E6000000000CC0000004C305CCFFF9788173E8C
:101E700025333A3E2549923E4FD01C3E298E633E83
:101E8000ABAA2A3FCDCCCC3EABAAAA3ED1F717379E
:101E90008071313F2DE9F04F2DED048BDBB01C46F6
:101EA000944603930A46CD4B68991CF1040F53F8EE
:101EB0002160824604F1FF38C0F24982BCF103037D
:101EC00048BF0CF10403DB10029301334FEAC30E49
:101ED000ACEB0E030593029B16EB0800A3EB080383
:101EE00016D401309FEDBE7A699C18441EA9002BC0
:101EF000A4BF54F8235007EE905A03F10103ACBF7E
:101F0000F8EEE77AF0EE477A8342E1EC017AEED11F
:101F1000002EC0F2B182039B1EA901EB830446ADE3
:101F20004FEA83094046F7180AEB8301B8F1000F26
:101F3000DFEDAB7A09DBA3465346F3EC016A3BEDD8
:101F4000017A8B42E6EE877AF7D10130B842E5ECB0
:101F5000017A04F10404E9D10DF1280B0BEB86039F
:101F6000CDE9062E043B9FEDA09ADFED9E8A0598F1
:101F700004930AEB090446AF0BEB86090096CDF8F3
:101F800020C05AAB03EB8603002E13ED140A4FEA70
:101F9000860515DD7B195A4660EE097AB0EE407A67
:101FA000FDEEE77A73ED016AF8EEE77ABB42A7EE41
:101FB000E87A37EEA60ABDEEC77AA2EC017AEBD139
:101FC000019000F0CBFDF4EE007AB0EE408A20EEF6
:101FD000270AFFF7A9F8F2EE007AA0EE678A0198C7
:101FE0000028FDEEC89AF8EEE97A38EE678A6CDDD3
:101FF00006F1FF3EC0F108035BF82E2042FA03FC15
:102000000CFA03F3D21AC0F1070119EE903A4BF81B
:102010002E200A416344002A09EE903A00F3F08032
:10202000B5EE408AF1EE10FA40F09D80009B9E4292
:102030000ADD5D44002355F8041D4D4543EA0103C4
:10204000F9D1002B40F0F280009B013B5BF823307C
:10205000002B40F0E780049B012153F8042D01314F
:10206000002AFAD0731C31449C46029D039A05EB6A
:10207000030E0EF1804E699D32440EF1FF3E07EBD8
:1020800083061EAB05EB8E0E03EB8205DEED017AB7
:10209000F8EEE77AB8F1000F0EF1040EE5EC017AE4
:1020A000DFED4F7A09DB2A465346F3EC016A32ED45
:1020B000017AA342E6EE877AF7D10CF1010C614573
:1020C000E6EC017AE2DA0E465BE740F08F80731EA1
:1020D0005BF82320D211002AA2DD19EE903A002EDF
:1020E00003F1010309EE903A40F3D48159464FF0D1
:1020F000000E51F8043B002B6AD0C3F5807341F801
:10210000043C04E00B68C3F1FF0341F8043B0EF10B
:10211000010E7645F6DC01239E4600280ADD0128E3
:1021200078D0022806D1711E5BF8213003F03F0CF5
:102130004BF821C0022A7FF473AFB7EE000A734652
:1021400030EE488A002B3FF46BAF0992019000F00B
:1021500005FD38EE408A0198099AB5EE408AF1EE05
:1021600010FA3FF463AF9246DDE9062EDDF820C099
:102170000196AEEB0C00B0EE480A009E009200F013
:10218000EDFCDFED186AB4EEE60AF1EE10FADDE9D7
:102190000023F0EE407AC0F250819FED137A05994A
:1021A00020EE077A0831BDEEC77A0591B8EEC77AFE
:1021B0005C1CE7EE667ABDEEC77AFDEEE77A17EEB5
:1021C000901A4BF8231017EE103A4BF8243046E0E3
:1021D0000EF1010EB6458CDB9E469EE7D806070839
:1021E00000000000000080430000803BF6EE007A13
:1021F000B4EEE78AF1EE10FA80F2988000220FE741
:102200000133002E09EE903A3FF770AF002301280A
:102210009E4686D1711E5BF8213003F07F0C4BF88F
:1022200021C087E7731C9C4619461EE73346924639
:10223000DDE905125C1EA1F108005BF82410009E88
:10224000059061B903F18043013B0BEB8303014629
:1022500053F8040D013C08390028F9D00591059880
:102260000092B7EE000A00F079FC002C009AB0EE64
:10227000407AC0F20581601C46AD5FED256A8100A1
:102280000BEB800305EB800073ED017AF8EEE77A43
:102290005B4567EE877A27EE267A60ED017AF3D107
:1022A0000DF1C8080B1F46A8C718C646A44600254E
:1022B0009146002E73DB844ADFED847A3846002392
:1022C00001E0AB4208DCF2EC016AB0EC017A0133C8
:1022D0009E42E6EE877AF4DA0CF1FF3CBCF1FF3F58
:1022E000EEEC017A05F10105A7F10407E1D1689B45
:1022F000022B4A4656DC002B2EDC0ED1DFED737A22
:10230000414431ED017A414577EE877AF9D1534660
:10231000002B40F0AE80C2ED007A19EE903A03F047
:1023200007005BB0BDEC048BBDE8F08F19EE903A6E
:10233000002E03F1010309EE903AC8BF02223FF7D5
:10234000D5AEF7EE007A37EEC88A022268E600239F
:102350004FF0080E0293BBE59FED5C7A414471EDAE
:10236000017A414537EE277AF9D1DDED327A5346CD
:1023700077EEC77A002B75D182ED007A64B133A96C
:102380000123B1EC017A01339C4277EE877AF8DAC7
:1023900053460BB1F1EE677AC2ED017ABDE7DFED8E
:1023A0004B7A99E7689B032BB7D1002C7ED008EBC2
:1023B000840595ED007AA0002B46294671ED017A3F
:1023C000F0EE476A37EE277A414577EEC77A81ED1E
:1023D000007A77EEA67AC1ED017AEFD1012C65D0B3
:1023E00095ED007A08F1040173ED017AF0EE476A89
:1023F00037EE277A994277EEC77A83ED007A77EE47
:10240000A67AC3ED017AEFD1031DDFED307A4344A4
:1024100008F1080833ED017A984577EE877AF9D10B
:102420005346DDED326A9DED337A73B9C2ED006A31
:1024300082ED017AC2ED027A6FE7FDEEC07A1C46AA
:1024400017EE901A4BF8231009E7F1EE666AB1EE29
:10245000477AF1EE677AC2ED006A82ED017AC2ED49
:10246000027A5AE7B1EE477A82ED007A002C86D1E3
:1024700090E7F1EE677A4EE7039B4FEA83096BE53D
:10248000689B022B0EDC002B13DC7FF446AFDFEDE4
:102490000F7A3CE7022A7FF4C3ADF7EE007A37EEFD
:1024A000C88ABDE5689B032B7FF437AFDFED077A61
:1024B000B6E75346DDED327A13B9002313606BE7BC
:1024C0004FF00043136065E7E406070800000000D2
:1024D000B1EEC00A704700BF2DE9F0432DED028B2D
:1024E00083B0CDED010A8DED000ADDE9004535F040
:1024F000004610D184F48004640014F5000F1BD949
:10250000DDED007A9DED017A37EE870A03B0BDEC70
:10251000028BBDE8F08324F00047B7F1FF4F02D8EB
:10252000B6F1FF4F0FD9B4F17E5FE9D185F4800594
:102530006D0015F5000FE3D8B7EE000A03B0BDEC4F
:10254000028BBDE8F083002CB84616DBB6F1FF4FD6
:1025500000F0F780B6F17E5F00F02681B5F1804F84
:1025600000F04681B5F17C5F40F0388103B0BDECEE
:10257000028BBDE8F043FFF7ABBFB6F1974F80F099
:10258000F080B6F17E5F80F01981B5F1804F00F0E8
:102590002F81B5F17C5F40F02181FFF779FBB7F126
:1025A000FF4FB3D04FF00009002F00F0F280B7F1D9
:1025B0007E5F00F0E580E20F013A59EA020300F085
:1025C0002181B6F19A4F40F24581924B9F4240F2F1
:1025D0003E82914B9F4200F24782F7EE007A30EE46
:1025E000670A9FED8E6ADFED8E5AF5EE007AA0EE57
:1025F000676AF6EE006AE6EE406A20EE007ADFEDEA
:10260000897A9FED896A27EE267A67EEC77AE0EE2F
:10261000257AF0EE676AE0EE066A16EE903A6FF3FE
:102620000B0306EE903AB0EE667AA0EE467A77EEAD
:10263000C77A6FF30B0507EE105A9DED016ADDEDC9
:10264000015A36EE476A67EEA57A26EE877AE6EEFD
:10265000267A09F1FF3959EA0209BFEE008A77EEBE
:10266000876AB7EE006A16EE903A18BFB0EE468A57
:10267000002B23F0004240F3B981B2F1864F00F203
:10268000388200F01C82B2F17C5F00F200820022EE
:1026900010466FF30B0305EE903A75EEC76A9FED97
:1026A000637A9FED633A9FED632ADFED633A9FED16
:1026B000634ADFED634A9FED635A77EEE67A25EED3
:1026C000877ADFED616AA7EEA67AF0EE002AF0EED7
:1026D000476AE5EE836AB7EE000A26EEA66AF0EED8
:1026E000667AE6EE023AE5EEC37AF0EE445AE3EE9D
:1026F000865A77EE677AB0EE647AA5EE867AF0EEC7
:10270000455AE7EE065AB0EE667AA5EEC67AE6EED0
:10271000A77A66EE875A37EE626A85EE867A77EE9A
:10272000677A77EEE67A30EE670A10EE103A1344D5
:10273000B3F5000FC0F2958100EE103A20EE080AC2
:10274000E4E6B7F17E5F3FF4F7AE32D99FED3F0A82
:10275000DDED017A002DB8BFF0EE407AB0EE670AE9
:10276000D4E6B6F1FF4FECD04FF002099DED000A20
:10277000FFF78EFAB7F1FF4F02D0002F7FF417AFAB
:10278000002DBCBFF7EE007A87EE800A002CBFF662
:10279000BDAEA7F17E5757EA090740F0208170EEE1
:1027A000407A87EEA70AB1E6002D1ADB9DED000AFC
:1027B000ACE6002D21DB9FED250AA7E6F315C3F15A
:1027C000960346FA03F202FA03F3B34200F0FA80EA
:1027D000B6F17E5FE8D0B5F1804F09D04FF0000927
:1027E000C4E79DED007AF7EE007A87EE870A8DE662
:1027F000DDED007A27EEA70A88E6DDED017AB1EE7D
:10280000670A83E6DDED007A77EEE77A87EEA70ABE
:102810007CE600BFF3FF7F3F0700803FABAAAA3EE4
:1028200070A5EC363BAAB83F00AAB83F8CBEBF35B6
:102830000072313F4CBB31330EEADDB555B38A38F7
:10284000610B36BBABAA2A3E1872313F0000000074
:102850000000804B14F0FF4F40F0F7805FED047AEA
:1028600060EE277A6FF0170317EE908AA9484FEAB7
:10287000E851C8F316087F398045194448F07E5363
:1028800040F3DB80A448804540F3F8809FEDA35AD5
:102890000131F0EE453AA3F50003F7EE005A0020AF
:1028A00006EE103A76EE257AB7EE007A87EE270A22
:1028B0005B1043F0005303F58023034476EE656A12
:1028C00007EE901A26EE803AB8EEE77A13EE101A69
:1028D00007EE903A924BDFED930A9FED938A9FEDBE
:1028E000931ADFED932ADFED931A9FED932A77EE8B
:1028F000E55A194004EE901A36EE656A63EE035A03
:10290000E4EEE76AF0EE607AE5EE887AE4EEC66A15
:10291000A7EEA51A66EE806AE1EE252A73EE247A08
:10292000E2EEA51A25EEA58AA1EEA52A67EEA67A03
:10293000B0EE084AB0EE446AE8EE027AA4EEA46A69
:10294000DFED7E0A9FED7E1ADFED7E2A36EE276AE6
:1029500016EE101A194006EE101A76EE445AE4EEFE
:10296000E45A77EEE57A67EE837AE6EE867AF0EE61
:10297000675AE4EE865A15EE901A194005EE901A41
:10298000F0EE656AE4EEC66A77EEE67A67EEA07A64
:10299000E5EE817A77EEA37AF0EE676AE5EEA26A59
:1029A00076EE856A76EE876A16EE901A194006EE84
:1029B000901A36EEC77A37EE457AA5EEE27A77EED0
:1029C000C77A36E6B6F17E5F3FF4EEAEB5F1804FE2
:1029D0003FF40EAF02F00102C2F10209C6E6B9F1FE
:1029E000010F7FF493ADB1EE400A8FE556498A425C
:1029F00000F287807FF447AE76EEC76AF4EEE76AAE
:102A0000F1EE10FA7DDA03F50043504AC3F3C751E3
:102A10007F39C3F316000A4140F40000C1F11701E9
:102A20001A400841404206EE902A37EE667AC20507
:102A300077EE876A16EE903A2BE69FED385AF7EE5E
:102A4000005AF0EE453A00202AE700230EE7002D59
:102A50000CDB002003B0BDEC028BBDE8F04300F0BE
:102A6000F9B900F07BF869E6002DF2DD002003B033
:102A7000BDEC028BBDE8F04300F0F2B99FED345A93
:102A8000DFED343AF7EE085A4FF4001008E7D2159C
:102A90007E3A4FF40001114119442C4AC1F3C75446
:102AA0007F3CC1F31600224140F40000C4F117043A
:102AB000002B40FA04F002EA0102B4DAB2E79FED1B
:102AC000266A76EEC76A37EE866AB4EEE66AF1EEFB
:102AD00010FA0EDC03F500431C4AD9157F39C3F305
:102AE00016000A4140F40000C1F117011A400841E4
:102AF00099E7B5EEC08AF1EE10FA4CBF0120002034
:102B0000B5E7B5EEC08AF1EE10FA4CBF0120002007
:102B1000A0E700BF71C41C00D6B35D000000000038
:102B200000F0FFFF55326C3E42F1533E05A38B3E51
:102B3000ABAAAA3EB76DDB3E9A99193F4F38763F54
:102B4000A0C39D360038763F00001643000080FF8A
:102B500000C0153FDCCFD1353CAA383310EE103A17
:102B600033F000411A4627D0B1F1FF4F21D213F0C4
:102B7000FF4F22D1DFED2B7A2B4A60EE277A90426D
:102B800017EE903A33DB4CF2503CC3F3C75160452B
:102B90001A46A1F1190116DDDFED247ADFED246A72
:102BA000002BB0EE677AB8BFF0EE667A27EE870AA0
:102BB000704730EE000A704770474CF2503C604559
:102BC0004FEAD151E8DC0144FE29E5DC002915DC9F
:102BD00011F1160F19DB193122F0FF4242EAC152FE
:102BE00007EE902A9FED130A27EE800A7047DFED6B
:102BF000127A07EE103A27EE270A704722F0FF42BA
:102C000042EAC15300EE103A7047DFED0B7ADFED78
:102C10000B6A002BB0EE677AB8BFF0EE667A27EE4B
:102C2000870A70470000004CB03CFFFFCAF24971B0
:102C3000CAF249F1000000336042A20D6042A28D49
:102C400010EE103A23F00042B2F1FF4F53D84FEA92
:102C5000D37100F092806148834200F38480002B9E
:102C6000C0F284805E4B9A4248D95E4B9A4200F291
:102C700097805D4A02EB8102D2ED004AD2ED027AE2
:102C800081F0010370EE644A5B1A34EEE70ADFED6F
:102C9000576A9FED575ADFED575A9FED576A20EE5E
:102CA000007AA7EE265ADFED556AE5EE075AE5EE03
:102CB000876AA6EE876AF0EE406AE6EE476A20EE83
:102CC000266A002B42D0B0EE007A37EE667AB7EE75
:102CD000000AC6EE076A13F17D0F77EEE67A77EE0B
:102CE000E47A30EE670A4FDB10EE102A02EBC35392
:102CF00000EE103A704730EE000A7047B2F1505FB4
:102D00000AD2DFED3F7A70EE277AB7EE007AF4EE62
:102D1000C77AF1EE10FA5DDC60EE007A9FED337A4F
:102D2000DFED335A9FED336ADFED346AE7EE875A01
:102D30009FED317AA7EEA56AE7EE866AA7EEA67A3E
:102D4000F0EE406AE7EEC76A20EE266AF0EE007AFF
:102D500076EEE76AB7EE007AC6EE267A77EEC07AAC
:102D600037EE670A7047002000F07AB8254B9A4288
:102D70007FF678AF002000F06DB8DFED237A0029F0
:102D800018BFB0EE670A704710EE102A643302EBEA
:102D9000C353DFED1E7A00EE103A20EE270A70478B
:102DA000114B9FED1B7ADFED1B6A03EB8103D3ED23
:102DB000047AE0EE077A9FED187AFDEEE77AF0EEFE
:102DC000404A17EE903AF8EEE77AE7EEE64A67EE09
:102DD000877A5AE730EE070A704700BF1772B14290
:102DE0001872B13E9115853F100707084CBB31336F
:102DF0000EEADDB555B38A38ABAA2A3E610B36BB65
:102E0000CAF24971B5F1CF42000000000000800D08
:102E10003BAAB83F8071313FD1F7173710B52DED80
:102E2000028BB0EE408A044600F0E8FDB0EE480A9E
:102E3000BDEC028B046010BD28B1F1EE407A27EEA4
:102E4000800A2220EAE7F0EE407A27EE800A22206C
:102E5000E4E700BF9FED010AEEE700BF00000010AD
:102E60009FED010AE8E700BF0000007000289FED19
:102E7000060AF7EE007ABFEE007A18BFF0EE477A46
:102E800087EE800A2220C9E700000000F0EE407AB9
:102E900030EE407AF4EE677AF1EE10FA87EE070A28
:102EA00001D62120BAE7704708B510EE103A33F08A
:102EB00000422DED028B2CD0002B1A4632DBB3F1F1
:102EC000FF4F41DAB3F5000F35DB0021D3157F3B0F
:102ED0000B44D90FC1F17F0103EBD373C2F3160288
:102EE00007EE903A42EAC15200EE102AB8EEE78AA5
:102EF000FEF7D6FEDFED177A9FED177A20EE270A50
:102F0000DFED167AA8EE070AA8EE270ABDEC028BC1
:102F100008BDBDEC028B9FED127ADFED127A87EED1
:102F2000270A08BDBDEC028B70EE407A9FED0D7A4A
:102F300087EE870A08BDDFED0C7A60EE277A6FF026
:102F4000180117EE902AC1E7BDEC028B30EE000AA3
:102F500008BD00BFD95BDE3EDB27543580209A3E9A
:102F6000000000CC000000000000004CEC46A0E88F
:102F7000F05F80EC108B4FF000007047B0E8F05F1E
:102F8000E54690EC108B080008BF0120704700BF99
:102F90002DE9F04101683B2982B0044600F2C78068
:102FA00041683B2900F2B180A168172900F29B809B
:102FB00021690B2900F2858063699A073DD1694830
:102FC000694A6A4D00FB0326B5EBB60F6CD2E36885
:102FD000002B4FF01D0034DC654D624F624EDFF870
:102FE0008CC107E0012914BF55F821200246134483
:102FF000002B1DDC0139F5D261694A1E12F0030F66
:1030000062615CD107FB0262BCEBB20FC0F0A18031
:10301000584A01F26B7107FB0161B2EB311F2CBF03
:103020001D201C201F221344002B4FF00B01E1DD5B
:10303000C4E9033102B0BDE8F0811C20E368002B35
:10304000CADD4B4D0226012905D19842F2DA1B1A3E
:10305000C4E90336022155F821209A4201F1010109
:10306000A3EB0203E6DA0C29C4E90331EBD1616971
:10307000DFF8F0C03C4FDFF8F4804A1C4FF0000E40
:1030800012F0030F62614FF01C00C4F810E00CFB5B
:10309000027207D101F26D71B8EBB20F0CFB017730
:1030A00059D21D200021D6E703F26C7300FB0322E6
:1030B000304BB3EB321F2CBF1D201C20BEE71C2061
:1030C000B0E70C22684601F0AFFBDDE9002163693F
:1030D000002913446361BDBF0C3103F1FF33C4E920
:1030E0000413216169E71822684601F09DFBDDE9C0
:1030F0000012E368002A0B44E360BDBF183203F1FD
:10310000FF33C4E90223A26052E73C22684601F083
:103110008BFBDDE90023A168002B1144A160BDBF3A
:103120003C3301F1FF31C4E9013163603DE73C22EA
:10313000684601F079FBDDE900236168002B11444A
:103140006160BDBF3C3301F1FF31C4E90031236050
:1031500027E71D2066E7074AB2EB371F28BF1D206F
:10316000002178E7295C8FC250B81E05285C8F02C9
:10317000280707080AD7A3002DE9F04F89B00546B4
:1031800000F05EFE80462846FFF702FF2969B74A35
:103190006B682E68EC686F6902EB8102C3EB031366
:1031A00006EB8306126BAB684FF46160013C0129AA
:1031B000144400FB036602DDB90700F0D58007F573
:1031C0001C53103344F620629342EC6100F2968166
:1031D000462F00F3A88045D0452F00F06E81A4480B
:1031E000A449DFF894C2DFF89492452340F26D1EA3
:1031F00012E0BCEBB20F03F26C7200FB0212C0F0E3
:10320000C080B9EB321F2CBF4FF4B7727246013B3E
:103210009F42A4EB02040BD013F0030F00FB031238
:10322000E7D0013B40F26D129F42A4EB0204F3D1C0
:10323000980740F012818E498E4A8F4801FB032780
:10324000B0EBB70FC0F030818C4803F26C7701FB14
:103250000722B0EB321F40F26D1228BF4FF4B77255
:10326000A41A1F46864B4FEAE679C4FB036900F0B7
:10327000EFFC00F05BF9834BD3F800A0BAF1000F2C
:1032800000F082806869D8F80430D5F820A000F2F8
:103290006C70834202D000F0C7FE78B3D8F850E0DB
:1032A000D8F82030D8F828B0D8F84820B3EB0E036F
:1032B0000693D8F824304FEAEE7C63EB0C030793B7
:1032C000D8F84C300593B2EB0B0163EBEB73039131
:1032D0000493039B9E42049B79EB0303CDE901EC2D
:1032E00058464FEAEB716CDB059BB2EB0E0263EBC9
:1032F0000C03964279EB030380F2C880BAF1010F08
:10330000A8BF4FF0010ABAF1010F3DD1D8F85030F3
:103310000193DB170293019BF618029B4FF0010A01
:1033200049EB030936E05249DFF84CC1DFF84C9114
:10333000462340F26D1E10E003F26C72BCEBB00F3E
:1033400001FB02F21AD3B9EB321F2CBF4FF4B77254
:1033500072460133BB42144484D09A0701FB03F048
:10336000EAD040F26D12F4E7414A424B424902FB77
:103370000730B1EBB00F66D2013420E74FF4B772DB
:10338000E7E74FF4B77242E7D8F82800C1173618BC
:1033900049EB010900F05EFC3B4A043482FB043235
:1033A0002244E317C3EBA203C3EBC303E31A00D524
:1033B0000733C5F820A0AB613046494609B0BDE8E7
:1033C000F08FD8F800302BB1069B9E42079B79EB1B
:1033D000030345DBBAF1000F9DD1ABEB0E024FF0BA
:1033E000010A2B68D5F80CB0134496192B602846B7
:1033F00049EBE279FFF7CCFDEA68B2EB0B0282D031
:10340000012A77DD4FF0FF32EB691444D21858D40B
:10341000BB0777D11649174B174801FB073CB0EBA8
:10342000BC0F75D307F26C7701FB07331349B1EB7F
:10343000331F40F26D1328BF4FF4B7739A42A8BFF1
:10344000D21AEA615FE707F26C7102FB01330B4AA3
:10345000B2EB331FFFF4B3AE8EE740F26D12FFE61E
:10346000BAF1000F1BDC4FF0000A90E728070708AD
:10347000295C8FC250B81E05285C8F020AD7A300B2
:10348000805101009445002093244992D8F80020EF
:10349000069B62B1BAF1000FE5DB3FF478AFAEEB0B
:1034A0000B024FF0000A9CE74FF4B772D8E69E4239
:1034B000079B79EB03038DDAECE73B4640F26D1294
:1034C000CEE67B1E9A0720D11449154A154801FB08
:1034D0000323B0EBB30F1ED3134B07F26B7701FB43
:1034E0000722B3EB321F40F26D1338BF4FF4B673AF
:1034F000EB6108E7911CD8BF012285E74FF0FF364A
:10350000B14659E740F26D1398E74FF4B673EFE711
:103510004FF4B77392E740F26D13E9E7295C8FC26D
:1035200050B81E05285C8F020AD7A300014B18680B
:1035300000F04ABE5816002008B500F089FB044B85
:10354000186800F041FEBDE8084000F083BB00BFF2
:103550005816002000207047024A0349034800F033
:1035600055BB00BFA8160020793900085C16002062
:103570000C4B4168994210B5044601D000F0FCF9AB
:10358000A168094B994202D0204600F0F5F9E168A4
:10359000064B994204D02046BDE8104000F0ECB93B
:1035A00010BD00BF3044002098440020004500209A
:1035B000002070472DE9F8432A4C2B49DFF8BC90D6
:1035C000DFF8BC80294FC4F83811002504230822F5
:1035D000294604F15C00264EE360C4E90055C4E9C5
:1035E0000455A5606566A56100F0E2F8214B6367AC
:1035F0000822294604F1C400C4E90849C4E90A873D
:10360000C4E91A55C4E91E552567C4F8CC50C4F85E
:103610008050266300F0CCF8174BC4F8DC30294604
:1036200004F16803082204F59670C4F88830C4E9F0
:103630002398C4E92576C4E93455C4E93855C4F85B
:10364000D850C4F83451C4F8E85000F0B1F804F18F
:10365000D003C4E93D98C4E93F76C4F8F030BDE832
:10366000F88300BF3044002059350008CD470008DA
:10367000F147000809000100120002006547000838
:103680008D470008F8B5254BD3F838310646002B96
:103690003CD0234FD7E90134013B04D51DE05A1C2F
:1036A00004F1680419D0B4F90C50013B002DF6D197
:1036B0001C4BE360C4E90155C4E904556566256007
:1036C000A5610822294604F15C0000F071F8C4E904
:1036D0000D55C4E912552046F8BD3D680DB12F4681
:1036E000D8E74FF4D671304600F0B2F9044680B105
:1036F0000423C0E900530C302946A0604FF4D07277
:10370000254600F055F83C602F46C3E7FFF752FF0F
:10371000BFE70C2338603360DDE700BF3044002092
:10372000A81600200100FFFF036A03B17047044B95
:10373000044AD3F838310262002BF7D13AE700BFD0
:103740003044002071350008704700BF704700BF4B
:10375000024A0349002000F059BA00BFA816002011
:1037600055350008024A0349002000F04FBA00BF57
:10377000A8160020B135000870B50C4B84B04FF08E
:10378000FF366946044600221868CDE9006600F05D
:1037900075FF0028B7BF3546DDE9000130462946F0
:1037A0000CB1C4E9000104B070BD00BF5816002080
:1037B000830730B547D0541E002A3ED0CAB2034614
:1037C00001E0013C39D303F8012B9D07F9D1032C0B
:1037D0002CD9CDB205EB05250F2C05EB054535D9C8
:1037E000A4F1100222F00F0C03F1100EE6444FEA90
:1037F000121C1A46C2E90055C2E902551032724540
:10380000F8D10CF1010214F00C0F03EB021204F0DA
:103810000F0C13D0ACF1040323F00303043313445F
:1038200042F8045B9342FBD10CF003042CB1C9B203
:103830001C4403F8011BA342FBD130BD6446134670
:10384000002CF4D1F9E703461446C0E71A46A44613
:10385000E0E700BFB1F90C302DE9F0411E070C463E
:1038600080463DD44A68002A56DDE56A002D34D0F2
:103870000022D8F80060C8F8002013F48052216AB2
:1038800057D101234046A847451C024666D0B4F9EB
:103890000C30E56A216A580705D56368D21A636B54
:1038A0000BB1236CD21A00234046A847431C42D0D8
:1038B0000023636023692360A389DF0400D560656A
:1038C000616BC8F8006041B104F14403994202D031
:1038D000404600F03DF9002363630020BDE8F0811D
:1038E0000E69002EF9D09B070D6808BF4B690E606A
:1038F00018BF0023AD1B8B600BE02B463246216ABC
:10390000A76A4046B847B0F1000CA5EB0C05664429
:1039100006DD002DF1DCE0E70A6C002AA5DCDCE71F
:10392000B4F90C3043F04003A3814FF0FF30BDE801
:10393000F081626DAFE7D8F80010B4F90C301D29A2
:10394000F0D80C4ACA40D507ECD522692260002283
:103950006260DA04B4D50029B1D0B1E7D8F80030FC
:10396000002B94D01D2B01D0162BD9D1C8F80060A4
:10397000B3E700BF010040200B69B3B110B50446A6
:1039800082B008B1036A5BB1B1F90C3013B9002001
:1039900002B010BD204602B0BDE81040FFF75ABF8C
:1039A0000191FFF7C1FE0199EEE70020704700BFCB
:1039B000B8B138B50D4A0369156804462BB10DB18D
:1039C0002B6A53B1B4F90C300BB9002038BD214635
:1039D0002846BDE83840FFF73DBF2846FFF7A4FE64
:1039E000F0E7034A0349044800F010B958160020D4
:1039F000A8160020793900085C160020014B1868D1
:103A0000704700BF5816002070B5104E3368054649
:103A10000C46B3B1214628460DF07CFA431C0CD06D
:103A2000C41C24F00304A04205D0211A28460DF03E
:103A300071FA013001D0204670BD4FF0FF342046AE
:103A400070BD19460DF066FA3060E3E76C45002062
:103A50002DE9F843CD1C25F0030508350C2D38BFA2
:103A60000C25002D064618DBA94216D8DFF8DC80AD
:103A700000F0EAF9D8F80420A2B1144603E0636824
:103A800022467BB11C4623685B1BF8D40B2B1FD846
:103A90009442636854D053600CE00C2333600020E0
:103AA000BDE8F88329463046FFF7AEFF431C0446C5
:103AB00019D00560304600F0C9F904F10B00231D50
:103AC00020F00700C21A1CBF1B1AA350BDE8F883E0
:103AD00061199442256014BF5160C8F80410635105
:103AE00063684B60E6E7D8F804701FB33C467F6814
:103AF000002FFBD123683946304604EB03090DF053
:103B000009FA814516D12368ED1A29463046FFF798
:103B10007BFF01300ED02368D8F804202B442360AB
:103B2000536883B1A34203D01A465B689C42FBD121
:103B30000023B0E70C233360304600F087F9AEE78E
:103B4000C8F80430B6E7C8F80470B3E76C45002045
:103B5000002950D038B551F8043C0C1F002BB8BFD9
:103B6000E418054600F070F9274A13682BB1A34208
:103B70000CD92168601883422CD0636028461460F9
:103B8000BDE8384000F062B9A3420FD81A465B681E
:103B9000002BF9D111685018844217D02CD36360E0
:103BA00054602846BDE8384000F050B911685018FC
:103BB000A04214D020D8216860188342EFD1186841
:103BC0005B680844C4E900035460EAE723680B44D7
:103BD0001360E6E718685B6808442060CDE720685A
:103BE0000144501883421160DBD1D3E90004014441
:103BF000C2E90014D5E770470C232B602846BDE8C6
:103C0000384000F023B900BF704500202DE9F8438B
:103C10000746884616464FF00009D6E90154013D93
:103C200010D4A389012B08D9B4F90E3001332146F1
:103C3000384602D0C04749EA0009013D6B1C04F137
:103C40006804EED13668002EE7D14846BDE8F88317
:103C5000704700BF704700BF844641EA000313F07D
:103C600003036DD1403A41D351F8043B40F8043B83
:103C700051F8043B40F8043B51F8043B40F8043B46
:103C800051F8043B40F8043B51F8043B40F8043B36
:103C900051F8043B40F8043B51F8043B40F8043B26
:103CA00051F8043B40F8043B51F8043B40F8043B16
:103CB00051F8043B40F8043B51F8043B40F8043B06
:103CC00051F8043B40F8043B51F8043B40F8043BF6
:103CD00051F8043B40F8043B51F8043B40F8043BE6
:103CE00051F8043B40F8043B403ABDD2303211D386
:103CF00051F8043B40F8043B51F8043B40F8043BC6
:103D000051F8043B40F8043B51F8043B40F8043BB5
:103D1000103AEDD20C3205D351F8043B40F8043B85
:103D2000043AF9D2043208D0D2071CBF11F8013B83
:103D300000F8013B01D30B8803806046704700BF49
:103D4000082A13D38B078DD010F003038AD0C3F158
:103D50000403D21ADB071CBF11F8013B00F8013B3A
:103D600080D331F8023B20F8023B7BE7043AD9D3F9
:103D7000013A11F8013B00F8013BF9D20B780370CE
:103D80004B7843708B78837060467047FCF7A8BA15
:103D9000024B01461868FFF75BBE00BF58160020B3
:103DA000024B01461868FFF7D3BE00BF581600202B
:103DB0002DE9F047DFF8749007460E46904600F074
:103DC00059FCD9F800504DB133781C466BB13446DC
:103DD00002E014F8013F3BB13D2BFAD1384600F028
:103DE0004BFC0020BDE8F087A41B28680028F5D014
:103DF0002246314600F02CF828B92868035D3D2B97
:103E000000EB040A04D055F8040F0028F0D1E5E7D0
:103E1000D9F80030EB1A9B103846C8F8003000F093
:103E20002BFC0AF10100BDE8F08700BFBC160020A2
:103E300000B583B001AAFFF7BBFF03B05DF804FB38
:103E40000048704700160020704700BF704700BF51
:103E5000002A3ED030B584460446084380070B460E
:103E60002ED1032A07D82BE0043A25D01EF0803F3C
:103E700022D1032A22D92068194653F8045BA0F105
:103E8000013EA842A4462EEA000E04F10404EBD041
:103E90009CF800000C7884421DD1E64668B11EF8FB
:103EA000010F11F8014FA2EB0E03A04203F1FF3303
:103EB00011D11CEB0303F1D1002030BDA4461946FB
:103EC0009CF800000C78A04205D1012AF4D0E64607
:103ED000E4E710467047001B30BD00BF01F144030A
:103EE0002DE9F0410C46496B994214D0A66B77003E
:103EF0003A4600F0AFFD054630B300EB0608014638
:103F000032464046FFF7A8FEC4E90D57C4F80080CA
:103F10000020BDE8F0814FF48061FFF799FD98B172
:103F200094F846304FF48062C4E90D0280F8FF3304
:103F300094F8453080F8FE3394F8442080F8FD234F
:103F400000F2FD332360E3E74FF0FF30E1E700BF0D
:103F500070B54C1C2BD00E460546144610B1036AB2
:103F6000002B4CD0B4F90C3023F020025807A2816A
:103F700006D4D9061BD51B0734D442F00402A28113
:103F8000626B6368F6B2AAB1A26B9A4209DD23683C
:103F90005A1E226003F8016C636801336360304687
:103FA00070BD21462846FFF799FF0028EFD04FF05B
:103FB000FF36F4E7226921682AB18A4203D211F858
:103FC000012CB2421ED02246C4E90F1304F1440072
:103FD00003236063A36302F8466F0123C4E900234F
:103FE000304670BD21462846FFF7C6FC0028DED1CA
:103FF000B4F90C20A06022F00802A061BDE7FFF731
:1040000093FBAFE701390133C4E90013C7E700BFF1
:1040100010B4044C03460A4620685DF8044B194668
:10402000FFF796BF581600202DE9F0470446FFF72A
:1040300007FF40F2B1739C4240F3A6806FF4F6672D
:104040005A4A446004EB070C40F26D15A4F26D73FC
:10405000A4F2B2714FEAAC0C05FB01CC82FB035118
:10406000DB17A3EB61136FF4C86E9C4404EB0E03E3
:10407000A2FB03234E4D0CEBD31C024600F1500E65
:10408000117A53694A291CD0442939D16344916972
:10409000976ACE17C3FB0516C91946EBE776C2E946
:1040A000081628329645EBD1046A816C436AC26CCB
:1040B0008C429341B4BF0123002303600120BDE87B
:1040C000F087A6070CEB03010ED13A4F3A4E07FBDF
:1040D000046607F18047013FB7EBB60F04D23B2BD4
:1040E000C8BF01314B1ED2E7324F334E07FB046687
:1040F000324FB7EB361FF5D33B2BC8BF0131F1E789
:10410000A10744D0294E86FB0416E117C1EBE61146
:104110004FF4C87606FB114100290CBF4FF0300860
:104120004FF0000826498844D16801293CDD4FEA58
:10413000810AAAF10809C144A8F10401664651F8B0
:10414000047F89453E44FAD1AAF1040188441D4FF9
:10415000311D87FB01798944CF17C7EBA907C7EB4E
:10416000C707C91B591A1369D8F8007003F1FF3348
:1041700048BF0731C3EBC3030B44BB4202DB073B21
:10418000BB42FCDA334482E70020BDE8F087094EE9
:10419000094906FB041106F18046013EB6EBB10F5A
:1041A000B0D24FF03008BDE76646D0E71F85EB512F
:1041B00080510100295C8FC250B81E050AD7A300A8
:1041C0008C080708932449922DE9F04F8FB00546DB
:1041D000FFF736FEC14904462846FFF729FE804610
:1041E000002800F01D81BE4E316829B1FCF778F837
:1041F000002800F03B8131680846FFF7D1FD4046BA
:10420000FBF7FEFF411C2846FFF722FC306010B18F
:10421000414600F049FAB34EB34FB44D0023C4E910
:104220000333C4E90533C4E90D33C4E90F33336004
:104230003B60A3622365AE4BC5E900334A2323727A
:1042400084F8303000220023C4E90823C4E9122393
:1042500098F800303A2B04BF98F8013008F10108B3
:104260003C2B00F006810DF1300BA24AA2495B46BF
:10427000404600F097FB002840F3F8800C98C21EDF
:10428000072A00F2F38018F800202D2A08EB000915
:1042900000F006812B2A08BF09F101094FF001083F
:1042A0000AAB002202930DF126030093ADF82620FD
:1042B000ADF828209149CDF80CB0CDF804B05B469C
:1042C00009AA484600F06EFB002840F3CF80BDF8F5
:1042D00026200C98C2EB0211BDF8282002EB8102C7
:1042E000BDF824104FF4616C0CFB012208FB02F3B3
:1042F00019F8002005933C2A814400F005817D4B8C
:104300007D490C331A46069348465B4600F04AFB4B
:10431000002840F315810C9AD11E072900F2A680CF
:1043200019F802102D2909EB020800F0BE802B2994
:1043300008BF08F101084FF001090AAB0022CDE9DE
:1043400001B30DF126030093ADF82420ADF826202B
:10435000ADF828200C926949CDF80CB05B4609AA4B
:10436000404600F01FFB002840F3FE80BDF82620E9
:10437000C2EB0211BDF8282002EB8102BDF8241027
:104380004FF4616000FB012209FB02F20C990792D5
:1043900000238844A246049398F80090B9F12C0FAA
:1043A00004BF98F8019008F10108B9F14D0F00F031
:1043B000DF80B9F14A0F08BF08F101084FF00A0287
:1043C0000DA9404618BF4FF0440900F0DFFA0D9BDD
:1043D000ADF82E00434500F0BA8080B28AF808900C
:1043E000CAF8140098464FF000094FF00203ADF8E8
:1043F0002430ADF82690ADF82890CDF8309098F89C
:1044000000302F2B00F0E1804FF4E153CAF8183050
:10441000049B0AF1280A002B4CD101230493BBE72B
:10442000324A37492F482E4DC0F800804A23C2E94E
:10443000001100200021237284F830302A4BC4F888
:104440002880C4E90801C4E91201C4E90388C4E969
:104450000588C4E90D88C4E90F882868C4F850802D
:10446000C3F80080FFF79CFCC5F800800FB0BDE8E2
:10447000F08F08F101090DF1300B1E4A21495B460E
:10448000484600F08FFA0028F0DD0C98C21E072A7B
:10449000ECD819F800203E2AE8D108F10208F2E62B
:1044A00009F101094FF0FF38FAE608F101084FF071
:1044B000FF3942E7059B079AA3620E4B22652B60EA
:1044C0006068069B6B60FFF7AFFDA26A236D3260E8
:1044D0009B1A18BF01233B60C8E700BFE8AA070882
:1044E000744500209045002094450020B41600201B
:1044F000E8DC07087845002004AB070814AB070880
:10450000ECAA0708F0AA0708504B51490C3309F1EF
:10451000010A1A46069350465B4600F043FA00280B
:104520000ADD0C9AD11E0729A0D81AF802103E29DC
:104530009CD109F10209F3E699F801203E2AF0D155
:10454000424BC5E90033059BA36233608EE7049AB2
:10455000002A5BD04D2284F830200B210122C4E9CF
:104560000D120022E2633DE7059BA3F561620DE7B2
:104570000DF12E0302930BAB00933649CDF80CB02E
:10458000CDF804B05B460DF12A02404600F00AFA6D
:1045900003287FF46BAFBDF82A305A1E0B2A3FF672
:1045A00065AFBDF82C20511E04293FF65FAFBDF862
:1045B0002E1006293FF65AAFCAE903328AF808904E
:1045C000CAF814100C9B98440DE70AABCDE901B36F
:1045D0000DF1260300932049CDF80CB05B4609AAE3
:1045E000404600F0DFF9484518DDBDF826300C994B
:1045F000C3EB0312BDF8283003EB8203BDF824207F
:1046000088444FF4616101FB0233FFE662614D2291
:10461000227203200222C4E90302E3E64A230020B7
:104620000021C4E90801C4E91201C4E90399C4E9FD
:104630000599C4E90D99C4E90F992372C4F828902B
:1046400084F83030C4F8509010E700BF784500205F
:10465000F0AA070828AB07083CAB070810B50446CA
:10466000FFF7F6FA2046FFF7AFFDBDE81040FFF771
:10467000F1BA00BF704700BF704700BF70B50C466D
:10468000084D03460026204611461C462E603AF08F
:104690009BFC431C00D070BD2B68002BFBD023601B
:1046A00070BD00BF9C45002080EA0102844612F0E4
:1046B000030F4FD111F0030F32D14DF8044D11F01B
:1046C000040F51F8043B0BD0A3F101329A4312F0CE
:1046D000803F04BF4CF8043B51F8043B16D100BFA7
:1046E00051F8044BA3F101329A4312F0803FA4F138
:1046F00001320BD14CF8043BA24312F0803F04BFBF
:1047000051F8043B4CF8044BEAD023460CF8013B2B
:1047100013F0FF0F4FEA3323F8D15DF8044B7047D5
:1047200011F0010F06D011F8012B0CF8012B002A13
:1047300008BF704711F0020FBFD031F8022B12F002
:10474000FF0F16BF2CF8022B8CF8002012F47F4FBD
:10475000B3D1704711F8012B0CF8012B002AF9D1C5
:10476000704700BF10B50C46B1F90E100CF0C6FB37
:10477000002803DB636D0344636510BDA38923F444
:104780008053A38110BD00BF002070472DE9F04188
:104790000C46B1F90C101F46CB05054616460BD446
:1047A00021F48051A1813B46B4F90E1032462846CF
:1047B000BDE8F0410CF0AABBB4F90E1002230022B0
:1047C0000CF0A2FBB4F90C10EAE700BF10B50C46E0
:1047D000B1F90E100CF098FBB4F90C30421C0EBF6E
:1047E00023F4805343F480536065A38110BD00BF60
:1047F000B1F90E100CF08CBB70B50C46084D034699
:104800000026204611461C462E600CF0D7FB431CA8
:1048100000D070BD2B68002BFBD0236070BD00BFA3
:104820009C4500200CF0D0BB10B491FBF2F402FBCD
:104830001411C0E900415DF8044B70472DE9F047C1
:10484000074649480E46354616F801EB10F80EC0EB
:104850001CF0080CF7D1BEF12D0F5AD0BEF12B0F72
:1048600003BF96F800E06446AE1C64464BB9BEF147
:10487000300F5CD00A23DFF8F4804FF0050A994628
:104880000AE0102B4AD04FF0FF38B8FBF3F803FBD7
:1048900008FA6FEA0A0A99460025284605E02CD056
:1048A00009FB00C0012516F801EBAEF1300CBCF19C
:1048B000090F06D9AEF1410CBCF1190F0BD8AEF1BE
:1048C000370C634510DDB5F1FF3FECD04045E6D92C
:1048D0004FF0FF35E7E7AEF1610CBCF1190F03D8DB
:1048E000AEF1570C6345EEDC6B1C0BD004B14042BB
:1048F0000AB165B91160BDE8F087D445D0DD4FF04D
:10490000FF35D0E722233B602846002AF3D0711EF2
:10491000F0E796F800E00124AE1CA7E7BEF1300FE7
:1049200011D04FF00F0A6FF070489946B4E7337812
:1049300003F0DF03582B0BD008234FF0070A6FF06A
:1049400060489946A8E7307800F0DF005828E8D1A1
:104950004FF0100996F801E04FF00F0A02366FF0A1
:1049600070484B4698E700BF89070708999999193D
:1049700064E700BF10B4044C8446134620685DF819
:10498000044B0A46614659E75816002010B4044CFF
:104990008446134620685DF8044B0A4661464DE79D
:1049A000581600200EB470B59DB021AC00254FF410
:1049B000017254F8046BADF814201B950290069018
:1049C000FBF71EFC0B4B0B930B4B03904FF6FF7149
:1049D0000790ADF8161018680F953246234602A9C5
:1049E0001495019400F0CAFA1DB0BDE8704003B000
:1049F000704700BF89470008581600200CB4F0B576
:104A00009DB022AC00254FF401730646084654F8C9
:104A1000047BADF81430029106911B95FBF7F0FB77
:104A20000346039307930A4B0B934FF6FF73ADF8BE
:104A300016303A463046234602A90F951495019444
:104A400000F09CFA1DB0BDE8F04002B0704700BF16
:104A5000894700082DE9F041144641B30AB30646E0
:104A60000D4600F029FA8442074602D8B4EB500FF5
:104A700013D821463046FEF7EBFF804650B1BC42CA
:104A80002246294628BF3A46FFF7E6F8294630462F
:104A9000FFF75EF84046BDE8F081A8464046BDE815
:104AA000F081A046FFF754F84046BDE8F081BDE82C
:104AB000F0411146FEF7CCBF2DE9F0478F681D4647
:104AC000AF420B680C46164636D8B1F90CC01CF440
:104AD000906F0ED13D46184631462A4600F09CFDA7
:104AE000A368DF1B2368A7602B4400202360BDE878
:104AF000F0874A69096902EB42025F1A02EBD2723F
:104B00006B1C52103B44934292BF914699461A4601
:104B10001CF4806F804611D01146FEF799FF824643
:104B200000B321693A46FFF797F8A38923F490630D
:104B300043F08003A38105E02F46CCE7FFF78AFF0F
:104B4000824658B10AEB0703A9EB0707A760C4F830
:104B500010A0C4F8149023602F46BCE7216940469A
:104B6000FEF7F6FFA3890C2243F04003C8F80020AB
:104B70004FF0FF30A381BAE72DE9F04F9368176833
:104B800083B09246002B74D04FF0000B8B680A68FC
:104B900081460C465D4645E0B4F90C3013F4906F45
:104BA0002CD0D4E90401161A01EB410202EBD272B7
:104BB000711C52102944914292BF904688460A4681
:104BC0005B0539D511464846FEF742FF01900028A3
:104BD0003DD032462169FFF73FF8A289019B22F4BC
:104BE000906242F08002A2819819A8EB0606A660A6
:104BF000C4F8148023612060A8462E4632465946E8
:104C000000F00AFDDAF80810A3682268A3EB080395
:104C10003244491BA3602260CAF8081049B3D7E99F
:104C200000B5083798461046002DF8D09D421E4624
:104C3000B2D2A8462E46E1E701464846FFF70AFFF2
:104C400003460028D0D121694846FEF781FFA38999
:104C50000C2243F04003C9F800204FF0FF30A3813D
:104C600000220023CAF80820CAF8043003B0BDE8C7
:104C7000F08F00200023CAF8043003B0BDE8F08FA5
:104C80002DE9F04F1C468B891D069DB08846814654
:104C9000934603D50B69002B00F0F18000230993A4
:104CA00043F22003ADF829309BF800307D4D03948A
:104CB0000126002B73D0DA4603E01AF8013F002BDF
:104CC00075D0252BF9D1BAEB0B0473D19AF80020DB
:104CD000002A64D000234FF0FF32CDE905230AF10A
:104CE000010A049307938DF853301A9305E0049A50
:104CF00006FA03F31A430492A2465446052214F816
:104D0000011B2846FBF75CFCA346431B0028EED1A1
:104D1000049BD80644BF20228DF8532019079AF827
:104D2000001044BF2B228DF853202A2950D1039A1A
:104D300011680432002903927CDB07919AF8011074
:104D40002E295BD0584C03222046FBF739FC38B1A2
:104D5000049B001B4022824013430BF1010B049380
:104D60001BF8011B51488DF828100622FBF728FC80
:104D7000002865D04E4B002B55D003AA00924D4B16
:104D8000424604A94846AFF3008007467A1C06D085
:104D9000099B3B4409939BF80030002B8BD1B8F85A
:104DA0000C305B067AD409981DB0BDE8F08FBAEBE1
:104DB0000B04F4D023465A4641464846FFF77CFE92
:104DC0000130ECD0099B9AF80020234409937FE737
:104DD000A1F13002092A88BFD346B1D8079B00E071
:104DE0000134217803EB830302EB4303A1F130028A
:104DF000092AF5D92E290793A346A3D19BF80110C0
:104E00002A2927D1039B9BF802101A6805920433C4
:104E1000002A0BF102000393B8BF4FF0FF33834623
:104E2000B8BF05938EE7039B073323F007030833CE
:104E30000393ADE7494243F00203079104937DE7F2
:104E400003AA00921B4B424604A9484600F0ACFD61
:104E500007469BE7A1F130020023092A05930BF1D5
:104E6000010B3FF66FAF1BF8011F03EB830302EB4F
:104E70004303A1F13002092AF5D9059362E74021E5
:104E8000FEF7E6FDC8F80000C8F8100018B140238E
:104E9000C8F8143002E70C23C9F800304FF0FF3097
:104EA00082E700BF50AB070858AB07085CAB0708A8
:104EB00000000000B94A000851F8043C181F002BFC
:104EC000BCBF0B58C018704738B54B1C1AD093891B
:104ED000144623F020035268A381636BCDB2A3B1C3
:104EE000A36B934209DD23685A1E226003F8015C1C
:104EF000636801336360284638BD2146FEF7EEFF44
:104F00000028F0D04FF0FF35F5E7236921682BB179
:104F10008B4203D211F8013CAB420ED02346C4E9C8
:104F20000F1204F1440003226063A26303F8465F9A
:104F30000122C4E90032284638BD01390132C4E9F2
:104F40000012D8E710B50C46496B69B104F144036F
:104F5000994201D0FEF7FCFD236C63600020606382
:104F600013B1E36B236010BDA2892369002142F0D5
:104F700020026160A2814FF0FF30F3E72DE9F04796
:104F8000ADF5247D92F8009001930023CDE94533DF
:104F9000864BA1930DF10808854BA293CDF81C8197
:104FA000B9F1000F14D0834F17F80930924613F06F
:104FB000080306460C460AF101052ED1B9F1250F6A
:104FC00045D06368002B08DD23681A784A450FD066
:104FD00045980DF5247DBDE8F087A29B214630461B
:104FE0009847002840F00B8123681A784A45EFD192
:104FF000013323606368013B6360469B0133AA462B
:1050000046939AF80090B9F1000FE1D017F80930F3
:1050100013F008030AF10105D0D062680DE023689F
:105020001A78BA5C110703F101030ED5626846993C
:10503000013AC4E9003201314691002A2146304646
:10504000EDDCA29B98470028E9D0AA46D9E7449313
:1050500042939AF801102A2905D1102342939AF815
:1050600002100AF10205A1F13003092B0DD800232B
:1050700003EB830301EB4301A1F13003449315F8E3
:10508000011FA1F13002092AF2D9DFF82CA1032275
:105090005046FBF795FA38B1429AA0EB0A0001237B
:1050A0008340134301354293AA461AF8013B782BFB
:1050B00000F28480DFE813F0A90082008200820001
:1050C00082008200820082008200820082008200D0
:1050D00082008200820082008200820082008200C0
:1050E00082008200820082008200820082008200B0
:1050F00082008200820082008200820082008200A0
:1051000082001101820082008200820082008200FF
:10511000820082008200820082008200820082007F
:10512000820082008200820082008200820082006F
:10513000820082008200820082008200820082005F
:105140008200C700C700C700820082008200820080
:10515000820082008200820082008200820082003F
:105160008200820082008200CA0082008200FC006D
:105170008200820082008200820082008200070199
:10518000DE00C700C700C70082000E018200820057
:1051900082008200E000EE00F20082008200F9004E
:1051A0008200DE0082008200CA0000BFC94E0008F3
:1051B000454F00088907070858AB070803234893A1
:1051C0000A2343936368002B4DDD429B580624D588
:1051D000489B022B40F38380042B40F38780474B8E
:1051E000002B3FF40EAF01AB224642A93046AFF38D
:1051F000008001283FF4ECAE02287FF402AF45980E
:1052000018B1A3895B067FF5E4AE4FF0FF30E0E60E
:10521000A29B304698470028F1D122681378FB5CA6
:105220001907D5D563684699013B481C002B2146D8
:105230004690636002F10102EADD22601378FB5CB4
:105240001907C5D5EEE705234893BBE7429A42F418
:105250000072429210226E2B43921DD80323489372
:105260006368002BB1DCA29B21463046984700289A
:10527000ABD0C4E70A22EEE7429BDA063FF5C1AEA7
:10528000019A4699101D0190DB0713684CBF1980E5
:105290001960B6E6082343930423E0E7429B43F4F6
:1052A0000873429310234393F6E70223489389E758
:1052B0005146404600F0BAFC429B43F04003429303
:1052C00082460123CBE7429B43F0400342930023F5
:1052D000489377E700234393C0E7554671E601AB57
:1052E000224642A9304600F00BF882E701AB224685
:1052F00042A9304600F06CF87BE700BF00000000D8
:105300002DE9F8430D461446AA68896907462AB96B
:10531000002914BF4FF0FF320122AA602A68D0068C
:1053200003D41A68101D18601668DFF8A0804FF0CB
:10533000000901B3012937D002293BD123681A782B
:1053400018F80220120735D42A68D10609F101099C
:1053500003D41B7806F8013B23686168AA68013909
:105360000133013AC4E90031AA606AB1002904DDC1
:10537000A9690029DED12368E6E7D5F88031214606
:10538000384698470028F3D02B6813F0100305D156
:10539000EA680132EA60AA6902B133702B694B44B2
:1053A00000202B61BDE8F88323686A691878125CD5
:1053B000002AC9D1B9F1000FE6D101290846F1D080
:1053C0002B6813F01003E9D1E2E700BF8907070853
:1053D0002DE9F04F87B00C46074615468648874AA8
:1053E00000938B688969864E032908BF1046019097
:1053F00096E8070003F1FF3C0DF10C0ABCF5AE7F07
:105400008AE8070040F2B0806FF4AE7103EB010947
:1054100040F25D13A360A0464FF0000B58F81C2B20
:1054200042F45062226046462B68DAF80000197890
:105430000222FBF7C5F850B3BBF1010F0CD0BBF152
:10544000020F00F0B280A3685A1EA260A3B94FF009
:10545000010B0AF1040AE7E7D4E900321AB908227D
:1054600043F40073626023F4A0632360A3685A1EB0
:10547000A260002B00F08A802B685A1C2A601B78DF
:1054800006F8013B6B68013B002B6B6073DD0BF191
:10549000010BBBF1030FDCD16168002967D0C1F1BA
:1054A0001001584B6069194400F0C0FBA368002B41
:1054B00000F09F804FF0000A06E02B6801332B605C
:1054C000A368013BA36003B3D5F800E062699EF8CE
:1054D00000C012F80C1022683046B9B1BCF1300F90
:1054E00022F4106155D021609EF8003000F8013B95
:1054F00006466B68013B002B294638466B60DCDCB6
:10550000D4F8803198470028DAD02268D1050CD52C
:10551000464507D916F8011CD4F87C312A4638468E
:10552000013E9847464562D0226812F0100211D120
:1055300032706368019D38464146A84723689A0641
:1055400046D500990B681A1D0A601B681860E3684D
:105550000133E3602369A6EB080656443344236114
:10556000002007B0BDE8F08F4FF0000953E70A2391
:105570006360062195E7D4F880312946384698477C
:10558000002884D022684FF0000ABFE74FF0020BDA
:105590005FE71205A7D501330AF1010AB9F1000F3F
:1055A000A7D0A36009F1FF39A3E7236803F4C06221
:1055B000B2F5007F7FF470AF43F480732360A3687B
:1055C000102262605A1EA260002B3FF465AF53E7C1
:1055D000009D2A68DF0702F1040103D529601368E2
:1055E0001880B4E7009B196013681860AFE70120CA
:1055F000B7E79A4689E700BF71490008515800088B
:10560000EC08070864AB070808B5062000F0EEFBBD
:1056100001200BF0CDFC00BF88420ED98B188342CD
:105620000BD900EB020C002A6ED0624613F801CDB4
:1056300002F801CD9942F9D170470F2A0FD80346DD
:1056400002F1FF3C002A5FD00CF1010C013B8C44BD
:1056500011F8012B03F8012F6145F9D1704740EA99
:1056600001039B0751D1A2F1100370B501F1200C89
:1056700023F00F0501F1100E00F11004AC441B09DA
:105680005EF8105C44F8105C5EF80C5C44F80C5C4E
:105690005EF8085C44F8085C5EF8045C44F8045C5E
:1056A0000EF1100EE64504F11004E9D1013312F0B9
:1056B0000C0F01EB031102F00F0400EB031328D0D1
:1056C000043C24F003064FEA940C1E441C1F8E4633
:1056D0005EF8045B44F8045FB442F9D10CF10104B4
:1056E00002F0030203EB840301EB840102F1FF3CAF
:1056F0004AB10CF1010C013B8C4411F8012B03F869
:10570000012F6145F9D170BD704702F1FF3C03469E
:105710009AE72246EAE700BF242B2DE9F84F43D849
:10572000012B41D0804649481F468E4675461EF8DB
:1057300001BB10F80B4014F00804F7D1BBF12D0F9A
:105740006FD0BBF12B0F08BF9EF800B06FF000497F
:1057500008BF05F1020E73BBBBF1300F4BD00A2717
:105760003B460025B9FBF7F6284607FB169A05E0ED
:105770003AD007FB00C001251EF801BBABF1300C8D
:10578000BCF1090F06D9ABF1410CBCF1190F19D8C6
:10579000ABF1370C63451EDDB5F1FF3FECD086421F
:1057A000E6D24FF0FF35E7E7FEF728F9162303604E
:1057B0000020BDE8F88F102BD3D1BBF1300F23D0E0
:1057C0001F46CEE7ABF1610CBCF1190F03D8ABF16A
:1057D000570C6345E0DC6B1C2BD054B9002AE8D091
:1057E00085BB1160BDE8F88FE245C2DA4FF0FF35A6
:1057F000C2E74042F2E79EF8003003F0DF03582B87
:1058000008D008273B46ACE79EF8000000F0DF0018
:105810005828D5D110279EF801B03B460EF1020E54
:105820009FE79EF800B04FF0004905F1020E0124F9
:1058300091E72223C8F8003032B10EF1FF3148461B
:105840001160CFE78146F8E74846B2E789070708C5
:1058500062E700BF10B4044C8446134620685DF82C
:10586000044B0A46614657E75816002010B4044C12
:105870008446134620685DF8044B0A4661464BE7B0
:10588000581600202DE9F84F92461F460A698B688A
:10589000DDF828909A42B8BF1A46CAF8002091F85D
:1058A00043300C46064613B10132CAF80020226884
:1058B00091065FD5DAF800300233CAF8003022686A
:1058C00012F0060F11461DD1E1689942D8BF11466A
:1058D00018DD4FF0000804F1190B05E0E568DAF86F
:1058E0000030ED1A45450CDD01235A463946304655
:1058F000C847013008F10108F0D14FF0FF30BDE892
:10590000F88F216894F84330003B18BF01238A06C2
:105910000AD5E1185A1C302081F84300224494F83B
:10592000451082F84310023304F1430239463046F1
:10593000C8470130E1D02368DAF80050216903F04C
:105940000603042BD4E902201BD08A4220DD4FF04D
:105950000008521A90441A34002501E0454517DA30
:105960000123224639463046C847013005F101057A
:10597000F4D1C2E712F0060F0DD0003B18BF01238F
:10598000D2E7401B8A4220EAE078E2DC0028E2DC31
:105990000020BDE8F88FE168DAF800309942D8BFFE
:1059A000114696DCAEE700BF2DE9F047174684B0FC
:1059B0000A7E0C9D0C460646984601F1430C002ACF
:1059C00035D0A2F15803D9B2202969D8202B67D845
:1059D000DFE813F0E6006600660066006600660019
:1059E00066006600660066006600AC007000660037
:1059F000660066006600700066006600660066006D
:105A000021008300C60066006600B60066008300C1
:105A100066006600EC002B6822686169181D28602A
:105A200010061B6802D4520600F1E08019600023C2
:105A3000E1462361CDF800803B4603AA214630466B
:105A4000FFF720FF013020D023694A46394630460F
:105A5000C047013019D02368E068DDF80C909B073F
:105A600018D5484516DD002504F1190A04E0E06860
:105A7000A0EB0903AB420DDD012352463946304607
:105A8000C047013005F10105F1D14FF0FF3004B0FE
:105A9000BDE8F0874845B8BF484604B0BDE8F08788
:105AA00084F84220012004F142090023206184F897
:105AB0004330BFE72A682368111D1806296002D405
:105AC000590600F195801068014600286268C0F20E
:105AD000938054484FF00A0E15E020682B6810F0B0
:105AE000800F53F8041B02D1400648BF89B26F2AC9
